:020000040000fa
:080000000002040000000000f2
:020000040000fa
:040008009807000055
:020000040000fa
:04000c006807000081
:020000040000fa
:040010006e07000077
:020000040000fa
:04001400740700006d
:020000040000fa
:040018007a07000063
:020000040000fa
:04001c009807000041
:020000040000fa
:04002000980700003d
:020000040000fa
:040024009807000039
:020000040000fa
:040028009807000035
:020000040000fa
:04002c009807000031
:020000040000fa
:04003000980700002d
:020000040000fa
:040034009807000029
:020000040000fa
:040038009807000025
:020000040000fa
:04003c009807000021
:020000040000fa
:04004000980700001d
:020000040000fa
:04004400e2060000d0
:020000040000fa
:040048009807000015
:020000040000fa
:04004c009807000011
:020000040000fa
:04005000980700000d
:020000040000fa
:040054009807000009
:020000040000fa
:040058009807000005
:020000040000fa
:04005c009807000001
:020000040000fa
:0400600098070000fd
:020000040000fa
:0400640098070000f9
:020000040000fa
:0400680098070000f5
:020000040000fa
:04006c0098070000f1
:020000040000fa
:0400700098070000ed
:020000040000fa
:04007400c8020000be
:020000040000fa
:0400780098070000e5
:020000040000fa
:04007c0098070000e1
:020000040000fa
:0400800098070000dd
:020000040000fa
:0400840098070000d9
:020000040000fa
:0400880098070000d5
:020000040000fa
:04008c0098070000d1
:020000040000fa
:0400900098070000cd
:020000040000fa
:0400940098070000c9
:020000040000fa
:0400980098070000c5
:020000040000fa
:04009c0098070000c1
:020000040000fa
:0400a00098070000bd
:020000040000fa
:0400a40098070000b9
:020000040000fa
:0400a80098070000b5
:020000040000fa
:0400ac0098070000b1
:020000040000fa
:0400b00098070000ad
:020000040000fa
:0400b40098070000a9
:020000040000fa
:0400b80098070000a5
:020000040000fa
:0400bc0098070000a1
:020000040000fa
:0400c000980700009d
:020000040000fa
:0400c4009807000099
:020000040000fa
:0400c8009807000095
:020000040000fa
:0400cc009807000091
:020000040000fa
:0400d000980700008d
:020000040000fa
:0400d4009807000089
:020000040000fa
:0400d8009807000085
:020000040000fa
:0400dc009807000081
:020000040000fa
:0400e000980700007d
:020000040000fa
:0400e4009807000079
:020000040000fa
:0400e8009807000075
:020000040000fa
:0400ec009807000071
:020000040000fa
:0400f000980700006d
:020000040000fa
:0400f4009807000069
:020000040000fa
:0400f8009807000065
:020000040000fa
:0400fc009807000061
:020000040000fa
:04010000980700005c
:020000040000fa
:040104009807000058
:020000040000fa
:040108009807000054
:020000040000fa
:04010c009807000050
:020000040000fa
:04011000980700004c
:020000040000fa
:040114009807000048
:020000040000fa
:040118009807000044
:020000040000fa
:04011c009807000040
:020000040000fa
:04012000980700003c
:020000040000fa
:040124009807000038
:020000040000fa
:040128009807000034
:020000040000fa
:04012c009807000030
:020000040000fa
:04013000980700002c
:020000040000fa
:040134009807000028
:020000040000fa
:040138009807000024
:020000040000fa
:04013c009807000020
:020000040000fa
:04014000980700001c
:020000040000fa
:040144009807000018
:020000040000fa
:040148009807000014
:020000040000fa
:04014c009807000010
:020000040000fa
:04015000980700000c
:020000040000fa
:040208009807000053
:020000040000fa
:04020c008007000067
:020000040000fa
:04021000860700005d
:020000040000fa
:040214008c07000053
:020000040000fa
:040218009207000049
:020000040000fa
:04021c00980700003f
:020000040000fa
:04022000980700003b
:020000040000fa
:040224009807000037
:020000040000fa
:040228009807000033
:020000040000fa
:04022c00980700002f
:020000040000fa
:04023000980700002b
:020000040000fa
:040234009807000027
:020000040000fa
:040238009807000023
:020000040000fa
:04023c00980700001f
:020000040000fa
:04024000980700001b
:020000040000fa
:040244009807000017
:020000040000fa
:040248009807000013
:020000040000fa
:04024c00980700000f
:020000040000fa
:04025000980700000b
:020000040000fa
:040254009807000007
:020000040000fa
:040258009807000003
:020000040000fa
:04025c0098070000ff
:020000040000fa
:0402600098070000fb
:020000040000fa
:0402640098070000f7
:020000040000fa
:0402680098070000f3
:020000040000fa
:04026c0098070000ef
:020000040000fa
:0402700098070000eb
:020000040000fa
:0402740098070000e7
:020000040000fa
:0402780098070000e3
:020000040000fa
:04027c0098070000df
:020000040000fa
:0402800098070000db
:020000040000fa
:0402840098070000d7
:020000040000fa
:0402880098070000d3
:020000040000fa
:04028c0098070000cf
:020000040000fa
:0402900098070000cb
:020000040000fa
:0402940098070000c7
:020000040000fa
:0402980098070000c3
:020000040000fa
:04029c0098070000bf
:020000040000fa
:0402a00098070000bb
:020000040000fa
:0402a40098070000b7
:020000040000fa
:0402a80098070000b3
:020000040000fa
:0402ac0098070000af
:020000040000fa
:0402b00098070000ab
:020000040000fa
:0402b40098070000a7
:020000040000fa
:0402b80098070000a3
:020000040000fa
:0402bc00980700009f
:020000040000fa
:0402c000980700009b
:020000040000fa
:0402c4009807000097
:020000040000fa
:0402c8009807000093
:020000040000fa
:0402cc00980700008f
:020000040000fa
:0402d000980700008b
:020000040000fa
:0402d4009807000087
:020000040000fa
:0402d8009807000083
:020000040000fa
:0402dc00980700007f
:020000040000fa
:0402e000980700007b
:020000040000fa
:0402e4009807000077
:020000040000fa
:0402e8009807000073
:020000040000fa
:0402ec00980700006f
:020000040000fa
:0402f000980700006b
:020000040000fa
:0402f4009807000067
:020000040000fa
:0402f8009807000063
:020000040000fa
:0402fc00980700005f
:020000040000fa
:04030000980700005a
:020000040000fa
:040304009807000056
:020000040000fa
:040308009807000052
:020000040000fa
:04030c00980700004e
:020000040000fa
:04031000980700004a
:020000040000fa
:040314009807000046
:020000040000fa
:040318009807000042
:020000040000fa
:04031c00980700003e
:020000040000fa
:04032000980700003a
:020000040000fa
:040324009807000036
:020000040000fa
:040328009807000032
:020000040000fa
:04032c00980700002e
:020000040000fa
:04033000980700002a
:020000040000fa
:040334009807000026
:020000040000fa
:040338009807000022
:020000040000fa
:04033c00980700001e
:020000040000fa
:04034000980700001a
:020000040000fa
:040344009807000016
:020000040000fa
:040348009807000012
:020000040000fa
:04034c00980700000e
:020000040000fa
:04035000980700000a
:020000040000fa
:100400008f8120000eff20000e01880000000000f8
:10041000000020000000e000020032000001200087
:100420002002880014000700c30207000000e0005b
:1004300003003a0000c02000010020000200370045
:100440000000200001002000810f70000100320038
:1004500014000700000020000000e000020032004d
:1004600000000200000000009e07020000000000e3
:100470000040da000000fe004440a9000000200017
:100480000000e0000300320000002000a00188000e
:100490004440a800000006008a1f78008b1f7800e7
:1004a0000000060091018800800478000000eb0045
:1004b0001a003700e284440032a0b4009905ba0063
:1004c000e284440032a0b4009906ba00e2844400f9
:1004d00032a0b4000006eb00476fde00fd07b2005b
:1004e000636ce10003003a00ebff07000000eb0043
:1004f0000a003700606ce10004003a00005deb0088
:100500008b05e900fdff3e00040037006168e10053
:10051000010032000086eb000b00070019c7ba008b
:100520001905ba000e04e00003003a000a00e000da
:10053000e0ff3a0000000600fe07b2009e018800be
:100540008a047800f5ff3700395dba008b05e900b1
:100550000c003200295dba008b05e900080032006a
:100560000c00e00003003a00e284440032a0b40032
:10057000f5ff370019ddba008b05e900faff3a00f4
:100580008904e800e184440032a0b40000000600c1
:10059000801f78003400f80000002000a0018800cf
:1005a0000000fa009660a9008660a90090168000fd
:1005b0000000d100614060000080fb000040880026
:1005c0009016800000407800614060000080fb00d1
:1005d00010408800501680004300de00614060003b
:1005e0000080fb0020408800501680004200de00a2
:1005f000614060000080fb003040880010408000b7
:100600000000e00006003a00204080000000e0000a
:1006100003003a00304080000000e0004800320053
:10062000004080000000e00006003a00104080001a
:100630000000e00003003a00304080000000e000cd
:100640003f003200104080000000e00006003a0049
:10065000204080000000e0000300320030408000b5
:100660000000e00036003200004080000000e000a2
:1006700006003200104080000000e00003003a0055
:10068000304080000000e0002d003200004080007b
:100690000000e00006003200204080000000e00082
:1006a00003003a00304080000000e00024003200e7
:1006b000004080000000e000060032001040800092
:1006c0000000e00003003a00204080000000e0004d
:1006d0001b003200004080000000e00006003a00ed
:1006e000104080000000e000030032003040800035
:1006f0000000e00012003a00004080000000e0002e
:1007000003003a00204080000000e0000c003a00a6
:10071000104080000000e000030032002040800014
:100720000000e00006003a00204080000000e000e9
:1007300005003200304080000000e00002003a0076
:1007400010002000010037000000eb00404088004e
:10075000104080000000e00006003a0020408000c9
:100760000000e00003003a00304080000000e0009c
:1007700045003200004080000000e000060032002a
:10078000104080000000e00003003a00304080008c
:100790000000e0003c003200104080000000e0005b
:1007a00006003a00204080000000e0000300320014
:1007b000304080000000e000330032000040800044
:1007c0000000e00006003a00104080000000e00059
:1007d00003003a00304080000000e0002a003200b0
:1007e000004080000000e00006003a002040800049
:1007f0000000e00003003a00304080000000e0000c
:1008000021003200004080000000e00003003a00b8
:10081000104080000000e0001b003200004080001b
:100820000000e00006003200104080000000e00000
:1008300003003a00204080000000e0001200320077
:10084000004080000000e0000600320020408000f0
:100850000000e00003003a00304080000000e000ab
:1008600009003a00004080000000e00008003a0063
:10087000204080000000e000050032003040800091
:100880000000e000020032001000200001003700ec
:100890000000eb0050408800104080000000e000a5
:1008a00006003a00204080000000e00003003a000b
:1008b000304080000000e0002a003200004080004c
:1008c0000000e00006003200104080000000e00060
:1008d00003003a00304080000000e00021003200b8
:1008e000004080000000e00003003a00204080004b
:1008f0000000e0001b003200004080000000e0002b
:1009000003003a00304080000000e00015003a008b
:10091000204080000000e00003003a0030408000ea
:100920000000e0000f003a00004080000000e000fe
:1009300003003200104080000000e0000900320097
:10094000004080000000e00008003a0010408000f5
:100950000000e00005003200204080000000e000c0
:100960000200320010002000010037000000eb0000
:1009700060408800004080000000e00006003a006f
:10098000104080000000e00003003a00304080008a
:100990000000e0003c003200104080000000e00059
:1009a00006003a00204080000000e00003003a000a
:1009b000304080000000e000330032000040800042
:1009c0000000e00003003200204080000000e00052
:1009d0002d003200104080000000e00006003200d0
:1009e000204080000000e00003003a00304080001a
:1009f0000000e00024003a00004080000000e00019
:100a000006003200104080000000e00003003a00c1
:100a1000304080000000e0001b003a0000408000f1
:100a20000000e00006003a00104080000000e000f6
:100a300003003a00204080000000e00012003a006d
:100a4000004080000000e00006003a0020408000e6
:100a50000000e00003003200304080000000e000b1
:100a600009003200104080000000e0000800320061
:100a7000204080000000e00005003200304080008f
:100a80000000e00002003a001000200001003700e2
:100a90000000eb0070408800104080000000e00083
:100aa00006003a00204080000000e00003003a0009
:100ab000304080000000e00036003200004080003e
:100ac0000000e00006003200104080000000e0005e
:100ad00003003a00304080000000e0002d003200aa
:100ae000104080000000e00006003a002040800036
:100af0000000e00003003200304080000000e00011
:100b000024003200004080000000e00006003a00af
:100b1000104080000000e00003003a0030408000f8
:100b20000000e0001b003200004080000000e000f8
:100b300006003200204080000000e00003003a0080
:100b4000304080000000e0001200320000408000d1
:100b50000000e00003003200104080000000e000d0
:100b60000c003a00004080000000e000030032006a
:100b7000204080000000e00006003a002040800095
:100b80000000e00005003200304080000000e0007e
:100b900002003a0010002000010037000000eb00c6
:100ba00080408800104080000000e00006003a000d
:100bb000204080000000e00003003a003040800048
:100bc0000000e0002d003200004080000000e00046
:100bd00006003200104080000000e00003003a00f0
:100be000304080000000e0002400320020408000ff
:100bf0000000e00003003a00304080000000e00008
:100c00001e003200004080000000e00003003200bf
:100c1000104080000000e00018003200004080001a
:100c20000000e00006003a00104080000000e000f4
:100c300003003200204080000000e0000f0032007e
:100c4000004080000000e0000300320020408000ef
:100c50000000e00009003a00104080000000e000c1
:100c600008003200204080000000e0000500320053
:100c7000304080000000e00002003a001000200038
:100c8000010037000000eb00904088000040800029
:100c90000000e00006003200104080000000e0008c
:100ca00003003a00304080000000e0003c003200c9
:100cb000104080000000e00006003a002040800064
:100cc0000000e00003003200304080000000e0003f
:100cd00033003200004080000000e00006003a00cf
:100ce000104080000000e00003003200204080003f
:100cf0000000e0002a003200104080000000e00008
:100d000006003200204080000000e00003003a00ae
:100d1000304080000000e00021003a0000408000e8
:100d20000000e00003003200304080000000e000de
:100d30001b003a00004080000000e0000300320089
:100d4000204080000000e00015003a0000408000d4
:100d50000000e00003003200104080000000e000ce
:100d60000f003200204080000000e000030032004d
:100d7000304080000000e0000900320000408000a8
:100d80000000e00008003a00104080000000e00091
:100d900005003a00204080000000e0000200320020
:100da00010002000010037000000eb00a040880088
:100db0009660a8000080fa003400f9004f00780027
:100dc00000400600801f78003400f800000020007a
:100dd000a00188000000fa0084e0a900b040800073
:100de0000000e00006003a00d522a800d502a900c4
:100df000b04080000000e800b040880006003700e6
:100e0000b0408000e10f500003003a00d522a90055
:100e1000d502a8001628ef0040408000e10f5000e6
:100e200002003a00cca2a80001003700cca2a90021
:100e300050408000e10f500002003a00ccc2a800f0
:100e400001003700ccc2a90060408000e10f5000d3
:100e500002003a00cce2a80001003700cce2a90071
:100e600070408000e10f500002003a00cd02a8005f
:100e700001003700cd02a90080408000e10f500042
:100e800002003a00cd22a80001003700cd22a900bf
:100e900090408000e10f500002003a00d482a80088
:100ea00001003700d482a900a0408000e10f50006b
:100eb00002003a00d4a2a80001003700d4a2a90081
:100ec0000080fa003400f9004f007800004006006e
:100ed0000000fa008020a900ffff37000000fa00a0
:100ee0008060a900ffff37000000fa008040a900e1
:100ef000ffff37000000fa008080a900ffff3700e5
:100f00000000fa008020a900ffff37000000fa006f
:100f10008060a900ffff37000000fa008040a900b0
:100f2000ffff37000000fa008080a900ffff3700b4
:0c0f30000000fa00ffff37000000050081
:020000040000fa
:100f3c000000fa000e020700c022ef00c822ef00ea
:100f4c00d022ef00d002a800d022a800c862a800ce
:100f5c00c842a8002c83a8002ca3a8002cc3a8006e
:100f6c002ce3a800901680000000d10061406000c6
:100f7c000080fb0000408800901680000040780044
:100f8c00614060000080fb0010408800501680001b
:100f9c004300de00614060000080fb0020408800c0
:100fac00501680004200de00614060000080fb00b3
:100fbc0030408800104080000000e00006003a003d
:100fcc00204080000000e00003003a003040800028
:100fdc000000e00048003200004080000000e0000b
:100fec0006003a00104080000000e00003003a00c8
:100ffc00304080000000e0003f00320010408000d4
:10100c000000e00006003a00204080000000e000f4
:10101c0003003200304080000000e0003600320057
:10102c00004080000000e00006003200104080000c
:10103c000000e00003003a00304080000000e000b7
:10104c002d003200004080000000e000060032005d
:10105c00204080000000e00003003a003040800097
:10106c000000e00024003200004080000000e0009e
:10107c0006003200104080000000e00003003a003f
:10108c00204080000000e0001b0032000040800087
:10109c000000e00006003a00104080000000e00074
:1010ac0003003200304080000000e00012003a00e3
:1010bc00004080000000e00003003a002040800067
:1010cc000000e0000c003a00104080000000e0003e
:1010dc0003003200204080000000e00006003a00cf
:1010ec00204080000000e00005003200304080000d
:1010fc000000e00002003a00100020000100370060
:10110c000000eb0040408800104080000000e00030
:10111c0006003a00204080000000e00003003a0086
:10112c00304080000000e0004500320000408000ac
:10113c000000e00006003200104080000000e000db
:10114c0003003a00304080000000e0003c00320018
:10115c00104080000000e00006003a0020408000b3
:10116c000000e00003003200304080000000e0008e
:10117c0033003200004080000000e00006003a001e
:10118c00104080000000e00003003a003040800076
:10119c000000e0002a003200004080000000e00067
:1011ac0006003a00204080000000e00003003a00f6
:1011bc00304080000000e000210032000040800040
:1011cc000000e00003003a00104080000000e00046
:1011dc001b003200004080000000e00006003200de
:1011ec00104080000000e00003003a002040800026
:1011fc000000e00012003200004080000000e0001f
:10120c0006003200204080000000e00003003a009d
:10121c00304080000000e00009003a0000408000ef
:10122c000000e00008003a00204080000000e000d0
:10123c0005003200304080000000e0000200320067
:10124c0010002000010037000000eb005040880027
:10125c00104080000000e00006003a0020408000b2
:10126c000000e00003003a00304080000000e00085
:10127c002a003200004080000000e000060032002e
:10128c00104080000000e00003003a003040800075
:10129c000000e00021003200004080000000e0006f
:1012ac0003003a00204080000000e0001b003200e8
:1012bc00004080000000e00003003a003040800055
:1012cc000000e00015003a00204080000000e00023
:1012dc0003003a00304080000000e0000f003a00ac
:1012ec00004080000000e00003003200104080004d
:1012fc000000e00009003200004080000000e00027
:10130c0008003a00104080000000e00005003200a8
:10131c00204080000000e00002003200100020009d
:10132c00010037000000eb006040880000408000a6
:10133c000000e00006003a00104080000000e000d1
:10134c0003003a00304080000000e0003c00320016
:10135c00104080000000e00006003a0020408000b1
:10136c000000e00003003a00304080000000e00084
:10137c0033003200004080000000e0000300320027
:10138c00204080000000e0002d0032001040800062
:10139c000000e00006003200204080000000e00069
:1013ac0003003a00304080000000e00024003a00c6
:1013bc00004080000000e000060032001040800079
:1013cc000000e00003003a00304080000000e00024
:1013dc001b003a00004080000000e00006003a00cc
:1013ec00104080000000e00003003a002040800024
:1013fc000000e00012003a00004080000000e00015
:10140c0006003a00204080000000e000030032009b
:10141c00304080000000e0000900320010408000e5
:10142c000000e00008003200204080000000e000d6
:10143c0005003200304080000000e00002003a005d
:10144c0010002000010037000000eb007040880005
:10145c00104080000000e00006003a0020408000b0
:10146c000000e00003003a00304080000000e00083
:10147c0036003200004080000000e0000600320020
:10148c00104080000000e00003003a003040800073
:10149c000000e0002d003200104080000000e00051
:1014ac0006003a00204080000000e00003003200fb
:1014bc00304080000000e00024003200004080003a
:1014cc000000e00006003a00104080000000e00040
:1014dc0003003a00304080000000e0001b003200a6
:1014ec00004080000000e000060032002040800038
:1014fc000000e00003003a00304080000000e000f3
:10150c0012003200004080000000e00003003200b6
:10151c00104080000000e0000c003a000040800009
:10152c000000e00003003200204080000000e000da
:10153c0006003a00204080000000e0000500320068
:10154c00304080000000e00002003a001000200053
:10155c00010037000000eb00804088001040800044
:10156c000000e00006003a00204080000000e0008f
:10157c0003003a00304080000000e0002d003200f3
:10158c00004080000000e0000600320010408000a7
:10159c000000e00003003a00304080000000e00052
:1015ac0024003200204080000000e00003003a00dc
:1015bc00304080000000e0001e003200004080003f
:1015cc000000e00003003200104080000000e0004a
:1015dc0018003200004080000000e00006003a00d5
:1015ec00104080000000e00003003200204080002a
:1015fc000000e0000f003200004080000000e0001e
:10160c0003003200204080000000e00009003a0096
:10161c00104080000000e0000800320020408000f4
:10162c000000e00005003200304080000000e000c7
:10163c0002003a0010002000010037000000eb000f
:10164c0090408800004080000000e000060032005e
:10165c00104080000000e00003003a0030408000a1
:10166c000000e0003c003200104080000000e00070
:10167c0006003a00204080000000e0000300320029
:10168c00304080000000e000330032000040800059
:10169c000000e00006003a00104080000000e0006e
:1016ac0003003200204080000000e0002a003200dd
:1016bc00104080000000e000060032002040800056
:1016cc000000e00003003a00304080000000e00021
:1016dc0021003a00004080000000e00003003200ce
:1016ec00304080000000e0001b003a000040800009
:1016fc000000e00003003200204080000000e00009
:10170c0015003a00004080000000e00003003200a9
:10171c00104080000000e0000f00320020408000ec
:10172c000000e00003003200304080000000e000c8
:10173c0009003200004080000000e00008003a0080
:10174c00104080000000e00005003a0020408000be
:10175c000000e00002003200100020000100370001
:10176c000000eb00a04088000140fe00feff3700a7
:10177c000000fa000c000700020007000080fa00cd
:10178c00000006000000fa0060c0a80060e0a8009d
:10179c006100a8006120a8008660a9009660a800de
:1017ac000080fa00000006000000fa0011e1a90018
:1017bc001061a9001021a90010c1a90081088000a6
:1017cc00f0fc2f00008060000040a0008008880022
:1017dc000621ef00007122006008880084e0a90057
:1017ec0094e0a80011a1a90011e1a8000080fa0062
:0417fc0000000600e3
:020000040000fa
:1018000000080000180000000000000000000000b8
:020000040000fa
:0c1810000000fa000080fa000000060052
:020000040000fa
:0200000401f009
:04000000ffff0000fe
:020000040000fa
:0200000401f009
:04000800ffff0000f6
:020000040000fa
:0200000401f009
:04000c0002000000ee
:020000040000fa
:0200000401f009
:0400100046000000a6
:020000040000fa
:0200000401f009
:040014005f00000089
:020000040000fa
:0200000401f009
:04001800770000006d
:020000040000fa
:0200000401f009
:04001c00dfff000002
:00000001FF
